{
  "contractName": "Voting",
  "abi": [
    {
      "anonymous": false,
      "inputs": [
        {
          "indexed": true,
          "internalType": "address",
          "name": "previousOwner",
          "type": "address"
        },
        {
          "indexed": true,
          "internalType": "address",
          "name": "newOwner",
          "type": "address"
        }
      ],
      "name": "OwnershipTransferred",
      "type": "event"
    },
    {
      "anonymous": false,
      "inputs": [
        {
          "indexed": false,
          "internalType": "uint256",
          "name": "proposalId",
          "type": "uint256"
        }
      ],
      "name": "ProposalRegistered",
      "type": "event"
    },
    {
      "anonymous": false,
      "inputs": [
        {
          "indexed": false,
          "internalType": "address",
          "name": "voter",
          "type": "address"
        },
        {
          "indexed": false,
          "internalType": "uint256",
          "name": "proposalId",
          "type": "uint256"
        }
      ],
      "name": "Voted",
      "type": "event"
    },
    {
      "anonymous": false,
      "inputs": [
        {
          "indexed": false,
          "internalType": "address",
          "name": "voterAddress",
          "type": "address"
        }
      ],
      "name": "VoterRegistered",
      "type": "event"
    },
    {
      "anonymous": false,
      "inputs": [
        {
          "indexed": false,
          "internalType": "enum Voting.WorkflowStatus",
          "name": "previousStatus",
          "type": "uint8"
        },
        {
          "indexed": false,
          "internalType": "enum Voting.WorkflowStatus",
          "name": "newStatus",
          "type": "uint8"
        }
      ],
      "name": "WorkflowStatusChange",
      "type": "event"
    },
    {
      "inputs": [],
      "name": "owner",
      "outputs": [
        {
          "internalType": "address",
          "name": "",
          "type": "address"
        }
      ],
      "stateMutability": "view",
      "type": "function",
      "constant": true
    },
    {
      "inputs": [
        {
          "internalType": "uint256",
          "name": "",
          "type": "uint256"
        }
      ],
      "name": "proposalsArray",
      "outputs": [
        {
          "internalType": "string",
          "name": "description",
          "type": "string"
        },
        {
          "internalType": "uint256",
          "name": "voteCount",
          "type": "uint256"
        }
      ],
      "stateMutability": "view",
      "type": "function",
      "constant": true
    },
    {
      "inputs": [],
      "name": "renounceOwnership",
      "outputs": [],
      "stateMutability": "nonpayable",
      "type": "function"
    },
    {
      "inputs": [
        {
          "internalType": "address",
          "name": "newOwner",
          "type": "address"
        }
      ],
      "name": "transferOwnership",
      "outputs": [],
      "stateMutability": "nonpayable",
      "type": "function"
    },
    {
      "inputs": [],
      "name": "workflowStatus",
      "outputs": [
        {
          "internalType": "enum Voting.WorkflowStatus",
          "name": "",
          "type": "uint8"
        }
      ],
      "stateMutability": "view",
      "type": "function",
      "constant": true
    },
    {
      "inputs": [
        {
          "internalType": "address",
          "name": "_addr",
          "type": "address"
        }
      ],
      "name": "getVoter",
      "outputs": [
        {
          "components": [
            {
              "internalType": "bool",
              "name": "isRegistered",
              "type": "bool"
            },
            {
              "internalType": "bool",
              "name": "hasVoted",
              "type": "bool"
            },
            {
              "internalType": "uint256",
              "name": "votedProposalId",
              "type": "uint256"
            }
          ],
          "internalType": "struct Voting.Voter",
          "name": "",
          "type": "tuple"
        }
      ],
      "stateMutability": "view",
      "type": "function",
      "constant": true
    },
    {
      "inputs": [
        {
          "internalType": "uint256",
          "name": "_id",
          "type": "uint256"
        }
      ],
      "name": "getOneProposal",
      "outputs": [
        {
          "components": [
            {
              "internalType": "string",
              "name": "description",
              "type": "string"
            },
            {
              "internalType": "uint256",
              "name": "voteCount",
              "type": "uint256"
            }
          ],
          "internalType": "struct Voting.Proposal",
          "name": "",
          "type": "tuple"
        }
      ],
      "stateMutability": "view",
      "type": "function",
      "constant": true
    },
    {
      "inputs": [],
      "name": "getWinners",
      "outputs": [
        {
          "components": [
            {
              "internalType": "string",
              "name": "description",
              "type": "string"
            },
            {
              "internalType": "uint256",
              "name": "voteCount",
              "type": "uint256"
            }
          ],
          "internalType": "struct Voting.Proposal[]",
          "name": "",
          "type": "tuple[]"
        }
      ],
      "stateMutability": "view",
      "type": "function",
      "constant": true
    },
    {
      "inputs": [],
      "name": "getWinner",
      "outputs": [
        {
          "components": [
            {
              "internalType": "string",
              "name": "description",
              "type": "string"
            },
            {
              "internalType": "uint256",
              "name": "voteCount",
              "type": "uint256"
            }
          ],
          "internalType": "struct Voting.Proposal",
          "name": "",
          "type": "tuple"
        }
      ],
      "stateMutability": "view",
      "type": "function",
      "constant": true
    },
    {
      "inputs": [],
      "name": "getWorkflowStatus",
      "outputs": [
        {
          "internalType": "enum Voting.WorkflowStatus",
          "name": "",
          "type": "uint8"
        }
      ],
      "stateMutability": "view",
      "type": "function",
      "constant": true
    },
    {
      "inputs": [
        {
          "internalType": "address",
          "name": "_addr",
          "type": "address"
        }
      ],
      "name": "addVoter",
      "outputs": [],
      "stateMutability": "nonpayable",
      "type": "function"
    },
    {
      "inputs": [
        {
          "internalType": "string",
          "name": "_desc",
          "type": "string"
        }
      ],
      "name": "addProposal",
      "outputs": [],
      "stateMutability": "nonpayable",
      "type": "function"
    },
    {
      "inputs": [
        {
          "internalType": "uint256",
          "name": "_id",
          "type": "uint256"
        }
      ],
      "name": "setVote",
      "outputs": [],
      "stateMutability": "nonpayable",
      "type": "function"
    },
    {
      "inputs": [],
      "name": "startProposalsRegistering",
      "outputs": [],
      "stateMutability": "nonpayable",
      "type": "function"
    },
    {
      "inputs": [],
      "name": "endProposalsRegistering",
      "outputs": [],
      "stateMutability": "nonpayable",
      "type": "function"
    },
    {
      "inputs": [],
      "name": "startVotingSession",
      "outputs": [],
      "stateMutability": "nonpayable",
      "type": "function"
    },
    {
      "inputs": [],
      "name": "endVotingSession",
      "outputs": [],
      "stateMutability": "nonpayable",
      "type": "function"
    },
    {
      "inputs": [],
      "name": "tallyVotesDraw",
      "outputs": [],
      "stateMutability": "nonpayable",
      "type": "function"
    },
    {
      "inputs": [],
      "name": "tallyVotes",
      "outputs": [],
      "stateMutability": "nonpayable",
      "type": "function"
    }
  ],
  "bytecode": "0x60806040523480156200001157600080fd5b5062000032620000266200003860201b60201c565b6200004060201b60201c565b62000104565b600033905090565b60008060009054906101000a900473ffffffffffffffffffffffffffffffffffffffff169050816000806101000a81548173ffffffffffffffffffffffffffffffffffffffff021916908373ffffffffffffffffffffffffffffffffffffffff1602179055508173ffffffffffffffffffffffffffffffffffffffff168173ffffffffffffffffffffffffffffffffffffffff167f8be0079c531659141344cd1fd0a4f28419497f9722a3daafe3b4186f6b6457e060405160405180910390a35050565b612ee780620001146000396000f3fe608060405234801561001057600080fd5b50600436106101215760003560e01c8063a7bfab16116100ad578063ee74c67811610071578063ee74c67814610272578063f2fde38b1461027c578063f4ab9adf14610298578063f75d64a6146102b4578063f86c6779146102d257610121565b8063a7bfab1614610206578063c7038a4e14610210578063c88af42f1461021a578063d4f50f9814610224578063df15c37e1461025457610121565b8063715018a6116100f4578063715018a6146101725780638da5cb5b1461017c5780638e7ea5b21461019a578063a1edffa2146101b8578063a2788cce146101d657610121565b8063230796ae146101265780632fdae3c514610142578063378a21781461015e5780633beee92e14610168575b600080fd5b610140600480360381019061013b9190611f01565b610303565b005b61015c60048036038101906101579190612074565b610600565b005b610166610844565b005b610170610a25565b005b61017a610d89565b005b610184610e11565b60405161019191906120fe565b60405180910390f35b6101a2610e3a565b6040516101af91906121ed565b60405180910390f35b6101c0610f87565b6040516101cd9190612286565b60405180910390f35b6101f060048036038101906101eb9190611f01565b610f9a565b6040516101fd91906121ed565b60405180910390f35b61020e611072565b005b6102186111cb565b005b610222611325565b005b61023e600480360381019061023991906122cd565b61147f565b60405161024b9190612357565b60405180910390f35b61025c6115a7565b6040516102699190612471565b60405180910390f35b61027a611717565b005b610296600480360381019061029191906122cd565b611871565b005b6102b260048036038101906102ad91906122cd565b611969565b005b6102bc611b87565b6040516102c99190612286565b60405180910390f35b6102ec60048036038101906102e79190611f01565b611b9e565b6040516102fa9291906124ec565b60405180910390f35b600660003373ffffffffffffffffffffffffffffffffffffffff1673ffffffffffffffffffffffffffffffffffffffff16815260200190815260200160002060000160009054906101000a900460ff16610392576040517f08c379a000000000000000000000000000000000000000000000000000000000815260040161038990612568565b60405180910390fd5b600360058111156103a6576103a561220f565b5b600460009054906101000a900460ff1660058111156103c8576103c761220f565b5b14610408576040517f08c379a00000000000000000000000000000000000000000000000000000000081526004016103ff906125fa565b60405180910390fd5b60011515600660003373ffffffffffffffffffffffffffffffffffffffff1673ffffffffffffffffffffffffffffffffffffffff16815260200190815260200160002060000160019054906101000a900460ff161515141561049f576040517f08c379a000000000000000000000000000000000000000000000000000000000815260040161049690612666565b60405180910390fd5b6005805490508111156104e7576040517f08c379a00000000000000000000000000000000000000000000000000000000081526004016104de906126d2565b60405180910390fd5b80600660003373ffffffffffffffffffffffffffffffffffffffff1673ffffffffffffffffffffffffffffffffffffffff168152602001908152602001600020600101819055506001600660003373ffffffffffffffffffffffffffffffffffffffff1673ffffffffffffffffffffffffffffffffffffffff16815260200190815260200160002060000160016101000a81548160ff0219169083151502179055506005818154811061059d5761059c6126f2565b5b906000526020600020906002020160010160008154809291906105bf90612750565b91905055507f4d99b957a2bc29a30ebd96a7be8e68fe50a3c701db28a91436490b7d53870ca433826040516105f5929190612799565b60405180910390a150565b600660003373ffffffffffffffffffffffffffffffffffffffff1673ffffffffffffffffffffffffffffffffffffffff16815260200190815260200160002060000160009054906101000a900460ff1661068f576040517f08c379a000000000000000000000000000000000000000000000000000000000815260040161068690612568565b60405180910390fd5b600160058111156106a3576106a261220f565b5b600460009054906101000a900460ff1660058111156106c5576106c461220f565b5b14610705576040517f08c379a00000000000000000000000000000000000000000000000000000000081526004016106fc9061280e565b60405180910390fd5b60405160200161071490612854565b604051602081830303815290604052805190602001208160405160200161073b9190612874565b604051602081830303815290604052805190602001201415610792576040517f08c379a000000000000000000000000000000000000000000000000000000000815260040161078990612908565b60405180910390fd5b61079a611d26565b818160000181905250600581908060018154018082558091505060019003906000526020600020906002020160009091909190915060008201518160000190805190602001906107eb929190611d40565b506020820151816001015550507f92e393e9b54e2f801d3ea4beb0c5e71a21cc34a5d34b77d0fb8a3aa1650dc18f600160058054905061082b9190612928565b604051610838919061295c565b60405180910390a15050565b61084c611c5a565b73ffffffffffffffffffffffffffffffffffffffff1661086a610e11565b73ffffffffffffffffffffffffffffffffffffffff16146108c0576040517f08c379a00000000000000000000000000000000000000000000000000000000081526004016108b7906129c3565b60405180910390fd5b600460058111156108d4576108d361220f565b5b600460009054906101000a900460ff1660058111156108f6576108f561220f565b5b14610936576040517f08c379a000000000000000000000000000000000000000000000000000000000815260040161092d90612a55565b60405180910390fd5b600080600090505b6005805490508110156109b4576005828154811061095f5761095e6126f2565b5b90600052602060002090600202016001015460058281548110610985576109846126f2565b5b90600052602060002090600202016001015411156109a1578091505b80806109ac90612750565b91505061093e565b50806003819055506005600460006101000a81548160ff021916908360058111156109e2576109e161220f565b5b02179055507f0a97a4ee45751e2abf3e4fc8946939630b11b371ea8ae39ccdc3056e98f5cc3f60046005604051610a1a929190612a75565b60405180910390a150565b610a2d611c5a565b73ffffffffffffffffffffffffffffffffffffffff16610a4b610e11565b73ffffffffffffffffffffffffffffffffffffffff1614610aa1576040517f08c379a0000000000000000000000000000000000000000000000000000000008152600401610a98906129c3565b60405180910390fd5b60046005811115610ab557610ab461220f565b5b600460009054906101000a900460ff166005811115610ad757610ad661220f565b5b14610b17576040517f08c379a0000000000000000000000000000000000000000000000000000000008152600401610b0e90612a55565b60405180910390fd5b6000610b21611dc6565b600080600090505b600580549050811015610c2e576005821015610c1b578360058281548110610b5457610b536126f2565b5b9060005260206000209060020201600101541415610b985780838360058110610b8057610b7f6126f2565b5b6020020181815250508180610b9490612750565b9250505b8360058281548110610bad57610bac6126f2565b5b9060005260206000209060020201600101541115610c1a57610bcd611dc6565b92508083600060058110610be457610be36126f2565b5b60200201818152505060058181548110610c0157610c006126f2565b5b9060005260206000209060020201600101549350600191505b5b8080610c2690612750565b915050610b29565b5060005b81811015610d1d576001838260058110610c4f57610c4e6126f2565b5b6020020151908060018154018082558091505060019003906000526020600020016000909190919091505560026005848360058110610c9157610c906126f2565b5b602002015181548110610ca757610ca66126f2565b5b906000526020600020906002020190806001815401808255809150506001900390600052602060002090600202016000909190919091506000820181600001908054610cf290612acd565b610cfd929190611de8565b506001820154816001015550508080610d1590612750565b915050610c32565b506005600460006101000a81548160ff02191690836005811115610d4457610d4361220f565b5b02179055507f0a97a4ee45751e2abf3e4fc8946939630b11b371ea8ae39ccdc3056e98f5cc3f60046005604051610d7c929190612a75565b60405180910390a1505050565b610d91611c5a565b73ffffffffffffffffffffffffffffffffffffffff16610daf610e11565b73ffffffffffffffffffffffffffffffffffffffff1614610e05576040517f08c379a0000000000000000000000000000000000000000000000000000000008152600401610dfc906129c3565b60405180910390fd5b610e0f6000611c62565b565b60008060009054906101000a900473ffffffffffffffffffffffffffffffffffffffff16905090565b610e42611d26565b600580811115610e5557610e5461220f565b5b600460009054906101000a900460ff166005811115610e7757610e7661220f565b5b14610eb7576040517f08c379a0000000000000000000000000000000000000000000000000000000008152600401610eae90612b4b565b60405180910390fd5b600560035481548110610ecd57610ecc6126f2565b5b9060005260206000209060020201604051806040016040529081600082018054610ef690612acd565b80601f0160208091040260200160405190810160405280929190818152602001828054610f2290612acd565b8015610f6f5780601f10610f4457610100808354040283529160200191610f6f565b820191906000526020600020905b815481529060010190602001808311610f5257829003601f168201915b50505050508152602001600182015481525050905090565b600460009054906101000a900460ff1681565b610fa2611d26565b60058281548110610fb657610fb56126f2565b5b9060005260206000209060020201604051806040016040529081600082018054610fdf90612acd565b80601f016020809104026020016040519081016040528092919081815260200182805461100b90612acd565b80156110585780601f1061102d57610100808354040283529160200191611058565b820191906000526020600020905b81548152906001019060200180831161103b57829003601f168201915b505050505081526020016001820154815250509050919050565b61107a611c5a565b73ffffffffffffffffffffffffffffffffffffffff16611098610e11565b73ffffffffffffffffffffffffffffffffffffffff16146110ee576040517f08c379a00000000000000000000000000000000000000000000000000000000081526004016110e5906129c3565b60405180910390fd5b600360058111156111025761110161220f565b5b600460009054906101000a900460ff1660058111156111245761112361220f565b5b14611164576040517f08c379a000000000000000000000000000000000000000000000000000000000815260040161115b906125fa565b60405180910390fd5b60048060006101000a81548160ff021916908360058111156111895761118861220f565b5b02179055507f0a97a4ee45751e2abf3e4fc8946939630b11b371ea8ae39ccdc3056e98f5cc3f600360046040516111c1929190612a75565b60405180910390a1565b6111d3611c5a565b73ffffffffffffffffffffffffffffffffffffffff166111f1610e11565b73ffffffffffffffffffffffffffffffffffffffff1614611247576040517f08c379a000000000000000000000000000000000000000000000000000000000815260040161123e906129c3565b60405180910390fd5b6000600581111561125b5761125a61220f565b5b600460009054906101000a900460ff16600581111561127d5761127c61220f565b5b146112bd576040517f08c379a00000000000000000000000000000000000000000000000000000000081526004016112b490612bdd565b60405180910390fd5b6001600460006101000a81548160ff021916908360058111156112e3576112e261220f565b5b02179055507f0a97a4ee45751e2abf3e4fc8946939630b11b371ea8ae39ccdc3056e98f5cc3f6000600160405161131b929190612a75565b60405180910390a1565b61132d611c5a565b73ffffffffffffffffffffffffffffffffffffffff1661134b610e11565b73ffffffffffffffffffffffffffffffffffffffff16146113a1576040517f08c379a0000000000000000000000000000000000000000000000000000000008152600401611398906129c3565b60405180910390fd5b600160058111156113b5576113b461220f565b5b600460009054906101000a900460ff1660058111156113d7576113d661220f565b5b14611417576040517f08c379a000000000000000000000000000000000000000000000000000000000815260040161140e90612c6f565b60405180910390fd5b6002600460006101000a81548160ff0219169083600581111561143d5761143c61220f565b5b02179055507f0a97a4ee45751e2abf3e4fc8946939630b11b371ea8ae39ccdc3056e98f5cc3f60016002604051611475929190612a75565b60405180910390a1565b611487611e75565b600660003373ffffffffffffffffffffffffffffffffffffffff1673ffffffffffffffffffffffffffffffffffffffff16815260200190815260200160002060000160009054906101000a900460ff16611516576040517f08c379a000000000000000000000000000000000000000000000000000000000815260040161150d90612568565b60405180910390fd5b600660008373ffffffffffffffffffffffffffffffffffffffff1673ffffffffffffffffffffffffffffffffffffffff1681526020019081526020016000206040518060600160405290816000820160009054906101000a900460ff161515151581526020016000820160019054906101000a900460ff161515151581526020016001820154815250509050919050565b60606005808111156115bc576115bb61220f565b5b600460009054906101000a900460ff1660058111156115de576115dd61220f565b5b1461161e576040517f08c379a000000000000000000000000000000000000000000000000000000000815260040161161590612b4b565b60405180910390fd5b6002805480602002602001604051908101604052809291908181526020016000905b8282101561170e578382906000526020600020906002020160405180604001604052908160008201805461167390612acd565b80601f016020809104026020016040519081016040528092919081815260200182805461169f90612acd565b80156116ec5780601f106116c1576101008083540402835291602001916116ec565b820191906000526020600020905b8154815290600101906020018083116116cf57829003601f168201915b5050505050815260200160018201548152505081526020019060010190611640565b50505050905090565b61171f611c5a565b73ffffffffffffffffffffffffffffffffffffffff1661173d610e11565b73ffffffffffffffffffffffffffffffffffffffff1614611793576040517f08c379a000000000000000000000000000000000000000000000000000000000815260040161178a906129c3565b60405180910390fd5b600260058111156117a7576117a661220f565b5b600460009054906101000a900460ff1660058111156117c9576117c861220f565b5b14611809576040517f08c379a000000000000000000000000000000000000000000000000000000000815260040161180090612d01565b60405180910390fd5b6003600460006101000a81548160ff0219169083600581111561182f5761182e61220f565b5b02179055507f0a97a4ee45751e2abf3e4fc8946939630b11b371ea8ae39ccdc3056e98f5cc3f60026003604051611867929190612a75565b60405180910390a1565b611879611c5a565b73ffffffffffffffffffffffffffffffffffffffff16611897610e11565b73ffffffffffffffffffffffffffffffffffffffff16146118ed576040517f08c379a00000000000000000000000000000000000000000000000000000000081526004016118e4906129c3565b60405180910390fd5b600073ffffffffffffffffffffffffffffffffffffffff168173ffffffffffffffffffffffffffffffffffffffff16141561195d576040517f08c379a000000000000000000000000000000000000000000000000000000000815260040161195490612d93565b60405180910390fd5b61196681611c62565b50565b611971611c5a565b73ffffffffffffffffffffffffffffffffffffffff1661198f610e11565b73ffffffffffffffffffffffffffffffffffffffff16146119e5576040517f08c379a00000000000000000000000000000000000000000000000000000000081526004016119dc906129c3565b60405180910390fd5b600060058111156119f9576119f861220f565b5b600460009054906101000a900460ff166005811115611a1b57611a1a61220f565b5b14611a5b576040517f08c379a0000000000000000000000000000000000000000000000000000000008152600401611a5290612e25565b60405180910390fd5b60011515600660008373ffffffffffffffffffffffffffffffffffffffff1673ffffffffffffffffffffffffffffffffffffffff16815260200190815260200160002060000160009054906101000a900460ff1615151415611af2576040517f08c379a0000000000000000000000000000000000000000000000000000000008152600401611ae990612e91565b60405180910390fd5b6001600660008373ffffffffffffffffffffffffffffffffffffffff1673ffffffffffffffffffffffffffffffffffffffff16815260200190815260200160002060000160006101000a81548160ff0219169083151502179055507fb6be2187d059cc2a55fe29e0e503b566e1e0f8c8780096e185429350acffd3dd81604051611b7c91906120fe565b60405180910390a150565b6000600460009054906101000a900460ff16905090565b60058181548110611bae57600080fd5b9060005260206000209060020201600091509050806000018054611bd190612acd565b80601f0160208091040260200160405190810160405280929190818152602001828054611bfd90612acd565b8015611c4a5780601f10611c1f57610100808354040283529160200191611c4a565b820191906000526020600020905b815481529060010190602001808311611c2d57829003601f168201915b5050505050908060010154905082565b600033905090565b60008060009054906101000a900473ffffffffffffffffffffffffffffffffffffffff169050816000806101000a81548173ffffffffffffffffffffffffffffffffffffffff021916908373ffffffffffffffffffffffffffffffffffffffff1602179055508173ffffffffffffffffffffffffffffffffffffffff168173ffffffffffffffffffffffffffffffffffffffff167f8be0079c531659141344cd1fd0a4f28419497f9722a3daafe3b4186f6b6457e060405160405180910390a35050565b604051806040016040528060608152602001600081525090565b828054611d4c90612acd565b90600052602060002090601f016020900481019282611d6e5760008555611db5565b82601f10611d8757805160ff1916838001178555611db5565b82800160010185558215611db5579182015b82811115611db4578251825591602001919060010190611d99565b5b509050611dc29190611e9a565b5090565b6040518060a00160405280600590602082028036833780820191505090505090565b828054611df490612acd565b90600052602060002090601f016020900481019282611e165760008555611e64565b82601f10611e275780548555611e64565b82800160010185558215611e6457600052602060002091601f016020900482015b82811115611e63578254825591600101919060010190611e48565b5b509050611e719190611e9a565b5090565b6040518060600160405280600015158152602001600015158152602001600081525090565b5b80821115611eb3576000816000905550600101611e9b565b5090565b6000604051905090565b600080fd5b600080fd5b6000819050919050565b611ede81611ecb565b8114611ee957600080fd5b50565b600081359050611efb81611ed5565b92915050565b600060208284031215611f1757611f16611ec1565b5b6000611f2584828501611eec565b91505092915050565b600080fd5b600080fd5b6000601f19601f8301169050919050565b7f4e487b7100000000000000000000000000000000000000000000000000000000600052604160045260246000fd5b611f8182611f38565b810181811067ffffffffffffffff82111715611fa057611f9f611f49565b5b80604052505050565b6000611fb3611eb7565b9050611fbf8282611f78565b919050565b600067ffffffffffffffff821115611fdf57611fde611f49565b5b611fe882611f38565b9050602081019050919050565b82818337600083830152505050565b600061201761201284611fc4565b611fa9565b90508281526020810184848401111561203357612032611f33565b5b61203e848285611ff5565b509392505050565b600082601f83011261205b5761205a611f2e565b5b813561206b848260208601612004565b91505092915050565b60006020828403121561208a57612089611ec1565b5b600082013567ffffffffffffffff8111156120a8576120a7611ec6565b5b6120b484828501612046565b91505092915050565b600073ffffffffffffffffffffffffffffffffffffffff82169050919050565b60006120e8826120bd565b9050919050565b6120f8816120dd565b82525050565b600060208201905061211360008301846120ef565b92915050565b600081519050919050565b600082825260208201905092915050565b60005b83811015612153578082015181840152602081019050612138565b83811115612162576000848401525b50505050565b600061217382612119565b61217d8185612124565b935061218d818560208601612135565b61219681611f38565b840191505092915050565b6121aa81611ecb565b82525050565b600060408301600083015184820360008601526121cd8282612168565b91505060208301516121e260208601826121a1565b508091505092915050565b6000602082019050818103600083015261220781846121b0565b905092915050565b7f4e487b7100000000000000000000000000000000000000000000000000000000600052602160045260246000fd5b6006811061224f5761224e61220f565b5b50565b60008190506122608261223e565b919050565b600061227082612252565b9050919050565b61228081612265565b82525050565b600060208201905061229b6000830184612277565b92915050565b6122aa816120dd565b81146122b557600080fd5b50565b6000813590506122c7816122a1565b92915050565b6000602082840312156122e3576122e2611ec1565b5b60006122f1848285016122b8565b91505092915050565b60008115159050919050565b61230f816122fa565b82525050565b60608201600082015161232b6000850182612306565b50602082015161233e6020850182612306565b50604082015161235160408501826121a1565b50505050565b600060608201905061236c6000830184612315565b92915050565b600081519050919050565b600082825260208201905092915050565b6000819050602082019050919050565b600060408301600083015184820360008601526123bb8282612168565b91505060208301516123d060208601826121a1565b508091505092915050565b60006123e7838361239e565b905092915050565b6000602082019050919050565b600061240782612372565b612411818561237d565b9350836020820285016124238561238e565b8060005b8581101561245f578484038952815161244085826123db565b945061244b836123ef565b925060208a01995050600181019050612427565b50829750879550505050505092915050565b6000602082019050818103600083015261248b81846123fc565b905092915050565b600082825260208201905092915050565b60006124af82612119565b6124b98185612493565b93506124c9818560208601612135565b6124d281611f38565b840191505092915050565b6124e681611ecb565b82525050565b6000604082019050818103600083015261250681856124a4565b905061251560208301846124dd565b9392505050565b7f596f75277265206e6f74206120766f7465720000000000000000000000000000600082015250565b6000612552601283612493565b915061255d8261251c565b602082019050919050565b6000602082019050818103600083015261258181612545565b9050919050565b7f566f74696e672073657373696f6e20686176656e74207374617274656420796560008201527f7400000000000000000000000000000000000000000000000000000000000000602082015250565b60006125e4602183612493565b91506125ef82612588565b604082019050919050565b60006020820190508181036000830152612613816125d7565b9050919050565b7f596f75206861766520616c726561647920766f74656400000000000000000000600082015250565b6000612650601683612493565b915061265b8261261a565b602082019050919050565b6000602082019050818103600083015261267f81612643565b9050919050565b7f50726f706f73616c206e6f7420666f756e640000000000000000000000000000600082015250565b60006126bc601283612493565b91506126c782612686565b602082019050919050565b600060208201905081810360008301526126eb816126af565b9050919050565b7f4e487b7100000000000000000000000000000000000000000000000000000000600052603260045260246000fd5b7f4e487b7100000000000000000000000000000000000000000000000000000000600052601160045260246000fd5b600061275b82611ecb565b91507fffffffffffffffffffffffffffffffffffffffffffffffffffffffffffffffff82141561278e5761278d612721565b5b600182019050919050565b60006040820190506127ae60008301856120ef565b6127bb60208301846124dd565b9392505050565b7f50726f706f73616c7320617265206e6f7420616c6c6f77656420796574000000600082015250565b60006127f8601d83612493565b9150612803826127c2565b602082019050919050565b60006020820190508181036000830152612827816127eb565b9050919050565b50565b600061283e600083612493565b91506128498261282e565b600082019050919050565b6000602082019050818103600083015261286d81612831565b9050919050565b6000602082019050818103600083015261288e81846124a4565b905092915050565b7f566f7573206e6520706f7576657a20706173206e65207269656e2070726f706f60008201527f7365720000000000000000000000000000000000000000000000000000000000602082015250565b60006128f2602383612493565b91506128fd82612896565b604082019050919050565b60006020820190508181036000830152612921816128e5565b9050919050565b600061293382611ecb565b915061293e83611ecb565b92508282101561295157612950612721565b5b828203905092915050565b600060208201905061297160008301846124dd565b92915050565b7f4f776e61626c653a2063616c6c6572206973206e6f7420746865206f776e6572600082015250565b60006129ad602083612493565b91506129b882612977565b602082019050919050565b600060208201905081810360008301526129dc816129a0565b9050919050565b7f43757272656e7420737461747573206973206e6f7420766f74696e672073657360008201527f73696f6e20656e64656400000000000000000000000000000000000000000000602082015250565b6000612a3f602a83612493565b9150612a4a826129e3565b604082019050919050565b60006020820190508181036000830152612a6e81612a32565b9050919050565b6000604082019050612a8a6000830185612277565b612a976020830184612277565b9392505050565b7f4e487b7100000000000000000000000000000000000000000000000000000000600052602260045260246000fd5b60006002820490506001821680612ae557607f821691505b60208210811415612af957612af8612a9e565b5b50919050565b7f566f74657320617265206e6f742074616c6c6965642079657400000000000000600082015250565b6000612b35601983612493565b9150612b4082612aff565b602082019050919050565b60006020820190508181036000830152612b6481612b28565b9050919050565b7f5265676973746572696e672070726f706f73616c732063616e7420626520737460008201527f6172746564206e6f770000000000000000000000000000000000000000000000602082015250565b6000612bc7602983612493565b9150612bd282612b6b565b604082019050919050565b60006020820190508181036000830152612bf681612bba565b9050919050565b7f5265676973746572696e672070726f706f73616c7320686176656e742073746160008201527f7274656420796574000000000000000000000000000000000000000000000000602082015250565b6000612c59602883612493565b9150612c6482612bfd565b604082019050919050565b60006020820190508181036000830152612c8881612c4c565b9050919050565b7f5265676973746572696e672070726f706f73616c73207068617365206973206e60008201527f6f742066696e6973686564000000000000000000000000000000000000000000602082015250565b6000612ceb602b83612493565b9150612cf682612c8f565b604082019050919050565b60006020820190508181036000830152612d1a81612cde565b9050919050565b7f4f776e61626c653a206e6577206f776e657220697320746865207a65726f206160008201527f6464726573730000000000000000000000000000000000000000000000000000602082015250565b6000612d7d602683612493565b9150612d8882612d21565b604082019050919050565b60006020820190508181036000830152612dac81612d70565b9050919050565b7f566f7465727320726567697374726174696f6e206973206e6f74206f70656e2060008201527f7965740000000000000000000000000000000000000000000000000000000000602082015250565b6000612e0f602383612493565b9150612e1a82612db3565b604082019050919050565b60006020820190508181036000830152612e3e81612e02565b9050919050565b7f416c726561647920726567697374657265640000000000000000000000000000600082015250565b6000612e7b601283612493565b9150612e8682612e45565b602082019050919050565b60006020820190508181036000830152612eaa81612e6e565b905091905056fea2646970667358221220e698aaebff123735db041ffb577c52189e742c1796de979d037a36285c1cfeed64736f6c63430008090033",
  "immutableReferences": {},
  "source": "// SPDX-License-Identifier: MIT\n\npragma solidity ^0.8.7;\n\nimport \"@openzeppelin/contracts/access/Ownable.sol\";\n// import \"./node_modules/@openzeppelin/contracts/access/Ownable.sol\";\n\n/// @title A generic vote application\n/// @author Cyril Castagnet - Sbastien Verdenal\n/// @notice Use this contract for a generic ballot without stakes\n/// @dev Contract under development which can be improved\ncontract Voting is Ownable {\n\n    // arrays for draw, uint for single\n    uint[] winningProposalsID;\n    Proposal[] winningProposals;\n    \n    uint winningProposalID;\n    \n    struct Voter {\n        bool isRegistered;\n        bool hasVoted;\n        uint votedProposalId;\n    }\n\n    struct Proposal {\n        string description;\n        uint voteCount;\n    }\n\n    enum  WorkflowStatus {\n        RegisteringVoters,\n        ProposalsRegistrationStarted,\n        ProposalsRegistrationEnded,\n        VotingSessionStarted,\n        VotingSessionEnded,\n        VotesTallied\n    }\n\n    WorkflowStatus public workflowStatus;\n    Proposal[] public proposalsArray;\n    mapping (address => Voter) private voters;\n\n    event VoterRegistered(address voterAddress); \n    event WorkflowStatusChange(WorkflowStatus previousStatus, WorkflowStatus newStatus);\n    event ProposalRegistered(uint proposalId);\n    event Voted (address voter, uint proposalId);\n\n    modifier onlyVoters() {\n        require(voters[msg.sender].isRegistered, \"You're not a voter\");\n        _;\n    }\n    \n    // on peut faire un modifier pour les tats\n\n    // ::::::::::::: GETTERS ::::::::::::: //\n\n    /// @notice Returns information about the voter if registered\n    /// @dev Returns a struct\n    /// @param _addr The address a potential voter\n    /// @return Returns a voter if voter isRegistered, hasVoted and a votedProposalId\n    function getVoter(address _addr) external onlyVoters view returns (Voter memory) {\n        return voters[_addr];\n    }\n    \n    /// @notice Returns a proposal identified by its id\n    /// @param _id The id of a proposal\n    /// @return Returns a struct\n    function getOneProposal(uint _id) external view returns (Proposal memory) {\n        return proposalsArray[_id];\n    }\n\n    // ne pas tester\n    /// @notice Returns the tied winning proposals (description & number of votes)\n    /// @return Returns an array of struct\n    function getWinners() external view returns (Proposal[] memory) {\n        require(workflowStatus == WorkflowStatus.VotesTallied, 'Votes are not tallied yet');\n        return winningProposals; // return proposalsArray[winningProposalID];\n    }\n\n    /// @notice Returns the winning proposal (description & number of votes)\n    /// @return Returns a struct\n    function getWinner() external view returns (Proposal memory) {\n        require(workflowStatus == WorkflowStatus.VotesTallied, 'Votes are not tallied yet');\n        return proposalsArray[winningProposalID];\n    }\n\n    /// @notice Returns the actual workflowStatus \n    /// @return Returns the id of the workflowStatus\n    function getWorkflowStatus() public view returns (WorkflowStatus) {\n        return workflowStatus;\n    }\n \n    // ::::::::::::: REGISTRATION ::::::::::::: // \n\n    /// @notice Adds a vote identified by his address\n    /// @param _addr The address a future voter\n    function addVoter(address _addr) external onlyOwner {\n        require(workflowStatus == WorkflowStatus.RegisteringVoters, 'Voters registration is not open yet');\n        require(voters[_addr].isRegistered != true, 'Already registered');\n    \n        voters[_addr].isRegistered = true;\n        emit VoterRegistered(_addr);\n    }\n \n    /* facultatif\n     * function deleteVoter(address _addr) external onlyOwner {\n     *   require(workflowStatus == WorkflowStatus.RegisteringVoters, 'Voters registration is not open yet');\n     *   require(voters[_addr].isRegistered == true, 'Not registered.');\n     *   voters[_addr].isRegistered = false;\n     *  emit VoterRegistered(_addr);\n    }*/\n\n    // ::::::::::::: PROPOSAL ::::::::::::: // \n\n    /// @notice Adds a proposal (description)\n    /// @param _desc The description of the proposal\n    function addProposal(string memory _desc) external onlyVoters {\n        require(workflowStatus == WorkflowStatus.ProposalsRegistrationStarted, 'Proposals are not allowed yet');\n        require(keccak256(abi.encode(_desc)) != keccak256(abi.encode(\"\")), 'Vous ne pouvez pas ne rien proposer'); // facultatif\n        // voir que desc est different des autres\n\n        Proposal memory proposal;\n        proposal.description = _desc;\n        proposalsArray.push(proposal);\n        emit ProposalRegistered(proposalsArray.length-1);\n    }\n\n    // ::::::::::::: VOTE ::::::::::::: //\n\n    /// @notice Votes for a proposal\n    /// @param _id The id of the proposal\n    function setVote( uint _id) external onlyVoters {\n        require(workflowStatus == WorkflowStatus.VotingSessionStarted, 'Voting session havent started yet');\n        require(voters[msg.sender].hasVoted != true, 'You have already voted');\n        require(_id <= proposalsArray.length, 'Proposal not found'); // pas oblig, et pas besoin du >0 car uint\n\n        voters[msg.sender].votedProposalId = _id;\n        voters[msg.sender].hasVoted = true;\n        proposalsArray[_id].voteCount++;\n\n        emit Voted(msg.sender, _id);\n    }\n\n    // ::::::::::::: STATE ::::::::::::: //\n\n    /* on pourrait factoriser tout a: par exemple:\n    *  function setWorkflowStatus(WorkflowStatus _num) public onlyOwner {\n    *    WorkflowStatus pnum = workflowStatus;\n    *    workflowStatus = _num;\n    *    emit WorkflowStatusChange(pnum, workflowStatus);\n        } */ \n\n    /// @notice Starts recording proposals\n    function startProposalsRegistering() external onlyOwner {\n        require(workflowStatus == WorkflowStatus.RegisteringVoters, 'Registering proposals cant be started now');\n        workflowStatus = WorkflowStatus.ProposalsRegistrationStarted;\n        emit WorkflowStatusChange(WorkflowStatus.RegisteringVoters, WorkflowStatus.ProposalsRegistrationStarted);\n    }\n\n    /// @notice Stops recording proposals\n    function endProposalsRegistering() external onlyOwner {\n        require(workflowStatus == WorkflowStatus.ProposalsRegistrationStarted, 'Registering proposals havent started yet');\n        workflowStatus = WorkflowStatus.ProposalsRegistrationEnded;\n        emit WorkflowStatusChange(WorkflowStatus.ProposalsRegistrationStarted, WorkflowStatus.ProposalsRegistrationEnded);\n    }\n\n    /// @notice Starts the voting session\n    function startVotingSession() external onlyOwner {\n        require(workflowStatus == WorkflowStatus.ProposalsRegistrationEnded, 'Registering proposals phase is not finished');\n        workflowStatus = WorkflowStatus.VotingSessionStarted;\n        emit WorkflowStatusChange(WorkflowStatus.ProposalsRegistrationEnded, WorkflowStatus.VotingSessionStarted);\n    }\n\n    /// @notice Stops the voting session\n    function endVotingSession() external onlyOwner {\n        require(workflowStatus == WorkflowStatus.VotingSessionStarted, 'Voting session havent started yet');\n        workflowStatus = WorkflowStatus.VotingSessionEnded;\n        emit WorkflowStatusChange(WorkflowStatus.VotingSessionStarted, WorkflowStatus.VotingSessionEnded);\n    }\n\n    // ne pas tester\n    /// @notice Counts the tied votes\n    function tallyVotesDraw() external onlyOwner {\n       require(workflowStatus == WorkflowStatus.VotingSessionEnded, \"Current status is not voting session ended\");\n        uint highestCount;\n        uint[5] memory winners; // egalite entre 5 proposals max\n        uint nbWinners;\n        for (uint i = 0; i < proposalsArray.length; i++) {\n            if (nbWinners<5){\n                if (proposalsArray[i].voteCount == highestCount) {\n                    winners[nbWinners]=i;\n                    nbWinners++;\n                }\n                if (proposalsArray[i].voteCount > highestCount) {\n                    delete winners;\n                    winners[0]= i;\n                    highestCount = proposalsArray[i].voteCount;\n                    nbWinners=1;\n                }\n            }\n        }\n        for(uint j=0;j<nbWinners;j++){\n            winningProposalsID.push(winners[j]);\n            winningProposals.push(proposalsArray[winners[j]]);\n        }\n        workflowStatus = WorkflowStatus.VotesTallied;\n        emit WorkflowStatusChange(WorkflowStatus.VotingSessionEnded, WorkflowStatus.VotesTallied);\n    }\n\n    /// @notice Counts the votes\n    function tallyVotes() external onlyOwner {\n        require(workflowStatus == WorkflowStatus.VotingSessionEnded, \"Current status is not voting session ended\");\n        uint _winningProposalId;\n        for (uint256 p = 0; p < proposalsArray.length; p++) {\n            if (proposalsArray[p].voteCount > proposalsArray[_winningProposalId].voteCount) {\n                _winningProposalId = p;\n            }\n        }\n        winningProposalID = _winningProposalId;\n        workflowStatus = WorkflowStatus.VotesTallied;\n        emit WorkflowStatusChange(WorkflowStatus.VotingSessionEnded, WorkflowStatus.VotesTallied);\n    }\n}",
  "sourcePath": "D:\\DOCUMENTS\\ALYRA\\LIVRABLES\\06_voting_react_trufflebox\\contracts\\Voting.sol",
  "compiler": {
    "name": "solc",
    "version": "0.8.9+commit.e5eed63a.Emscripten.clang"
  },
  "schemaVersion": "3.4.3",
  "updatedAt": "2021-11-27T16:29:24.199Z",
  "networkType": "ethereum",
  "devdoc": {
    "author": "Cyril Castagnet - Sbastien Verdenal",
    "details": "Contract under development which can be improved",
    "kind": "dev",
    "methods": {
      "addProposal(string)": {
        "params": {
          "_desc": "The description of the proposal"
        }
      },
      "addVoter(address)": {
        "params": {
          "_addr": "The address a future voter"
        }
      },
      "getOneProposal(uint256)": {
        "params": {
          "_id": "The id of a proposal"
        },
        "returns": {
          "_0": "Returns a struct"
        }
      },
      "getVoter(address)": {
        "details": "Returns a struct",
        "params": {
          "_addr": "The address a potential voter"
        },
        "returns": {
          "_0": "Returns a voter if voter isRegistered, hasVoted and a votedProposalId"
        }
      },
      "getWinner()": {
        "returns": {
          "_0": "Returns a struct"
        }
      },
      "getWinners()": {
        "returns": {
          "_0": "Returns an array of struct"
        }
      },
      "getWorkflowStatus()": {
        "returns": {
          "_0": "Returns the id of the workflowStatus"
        }
      },
      "owner()": {
        "details": "Returns the address of the current owner."
      },
      "renounceOwnership()": {
        "details": "Leaves the contract without owner. It will not be possible to call `onlyOwner` functions anymore. Can only be called by the current owner. NOTE: Renouncing ownership will leave the contract without an owner, thereby removing any functionality that is only available to the owner."
      },
      "setVote(uint256)": {
        "params": {
          "_id": "The id of the proposal"
        }
      },
      "transferOwnership(address)": {
        "details": "Transfers ownership of the contract to a new account (`newOwner`). Can only be called by the current owner."
      }
    },
    "title": "A generic vote application",
    "version": 1
  },
  "userdoc": {
    "kind": "user",
    "methods": {
      "addProposal(string)": {
        "notice": "Adds a proposal (description)"
      },
      "addVoter(address)": {
        "notice": "Adds a vote identified by his address"
      },
      "endProposalsRegistering()": {
        "notice": "Stops recording proposals"
      },
      "endVotingSession()": {
        "notice": "Stops the voting session"
      },
      "getOneProposal(uint256)": {
        "notice": "Returns a proposal identified by its id"
      },
      "getVoter(address)": {
        "notice": "Returns information about the voter if registered"
      },
      "getWinner()": {
        "notice": "Returns the winning proposal (description & number of votes)"
      },
      "getWinners()": {
        "notice": "Returns the tied winning proposals (description & number of votes)"
      },
      "getWorkflowStatus()": {
        "notice": "Returns the actual workflowStatus "
      },
      "setVote(uint256)": {
        "notice": "Votes for a proposal"
      },
      "startProposalsRegistering()": {
        "notice": "Starts recording proposals"
      },
      "startVotingSession()": {
        "notice": "Starts the voting session"
      },
      "tallyVotes()": {
        "notice": "Counts the votes"
      },
      "tallyVotesDraw()": {
        "notice": "Counts the tied votes"
      }
    },
    "notice": "Use this contract for a generic ballot without stakes",
    "version": 1
  }
}