{
  "contractName": "Voting",
  "abi": [
    {
      "anonymous": false,
      "inputs": [
        {
          "indexed": true,
          "internalType": "address",
          "name": "previousOwner",
          "type": "address"
        },
        {
          "indexed": true,
          "internalType": "address",
          "name": "newOwner",
          "type": "address"
        }
      ],
      "name": "OwnershipTransferred",
      "type": "event"
    },
    {
      "anonymous": false,
      "inputs": [
        {
          "indexed": false,
          "internalType": "uint256",
          "name": "proposalId",
          "type": "uint256"
        }
      ],
      "name": "ProposalRegistered",
      "type": "event"
    },
    {
      "anonymous": false,
      "inputs": [
        {
          "indexed": false,
          "internalType": "address",
          "name": "voter",
          "type": "address"
        },
        {
          "indexed": false,
          "internalType": "uint256",
          "name": "proposalId",
          "type": "uint256"
        }
      ],
      "name": "Voted",
      "type": "event"
    },
    {
      "anonymous": false,
      "inputs": [
        {
          "indexed": false,
          "internalType": "address",
          "name": "voterAddress",
          "type": "address"
        }
      ],
      "name": "VoterRegistered",
      "type": "event"
    },
    {
      "anonymous": false,
      "inputs": [
        {
          "indexed": false,
          "internalType": "enum Voting.WorkflowStatus",
          "name": "previousStatus",
          "type": "uint8"
        },
        {
          "indexed": false,
          "internalType": "enum Voting.WorkflowStatus",
          "name": "newStatus",
          "type": "uint8"
        }
      ],
      "name": "WorkflowStatusChange",
      "type": "event"
    },
    {
      "inputs": [],
      "name": "owner",
      "outputs": [
        {
          "internalType": "address",
          "name": "",
          "type": "address"
        }
      ],
      "stateMutability": "view",
      "type": "function",
      "constant": true
    },
    {
      "inputs": [
        {
          "internalType": "uint256",
          "name": "",
          "type": "uint256"
        }
      ],
      "name": "proposalsArray",
      "outputs": [
        {
          "internalType": "string",
          "name": "description",
          "type": "string"
        },
        {
          "internalType": "uint256",
          "name": "voteCount",
          "type": "uint256"
        }
      ],
      "stateMutability": "view",
      "type": "function",
      "constant": true
    },
    {
      "inputs": [],
      "name": "renounceOwnership",
      "outputs": [],
      "stateMutability": "nonpayable",
      "type": "function"
    },
    {
      "inputs": [
        {
          "internalType": "address",
          "name": "newOwner",
          "type": "address"
        }
      ],
      "name": "transferOwnership",
      "outputs": [],
      "stateMutability": "nonpayable",
      "type": "function"
    },
    {
      "inputs": [],
      "name": "workflowStatus",
      "outputs": [
        {
          "internalType": "enum Voting.WorkflowStatus",
          "name": "",
          "type": "uint8"
        }
      ],
      "stateMutability": "view",
      "type": "function",
      "constant": true
    },
    {
      "inputs": [
        {
          "internalType": "address",
          "name": "_addr",
          "type": "address"
        }
      ],
      "name": "getVoter",
      "outputs": [
        {
          "components": [
            {
              "internalType": "bool",
              "name": "isRegistered",
              "type": "bool"
            },
            {
              "internalType": "bool",
              "name": "hasVoted",
              "type": "bool"
            },
            {
              "internalType": "uint256",
              "name": "votedProposalId",
              "type": "uint256"
            }
          ],
          "internalType": "struct Voting.Voter",
          "name": "",
          "type": "tuple"
        }
      ],
      "stateMutability": "view",
      "type": "function",
      "constant": true
    },
    {
      "inputs": [
        {
          "internalType": "uint256",
          "name": "_id",
          "type": "uint256"
        }
      ],
      "name": "getOneProposal",
      "outputs": [
        {
          "components": [
            {
              "internalType": "string",
              "name": "description",
              "type": "string"
            },
            {
              "internalType": "uint256",
              "name": "voteCount",
              "type": "uint256"
            }
          ],
          "internalType": "struct Voting.Proposal",
          "name": "",
          "type": "tuple"
        }
      ],
      "stateMutability": "view",
      "type": "function",
      "constant": true
    },
    {
      "inputs": [],
      "name": "getAllProposals",
      "outputs": [
        {
          "components": [
            {
              "internalType": "string",
              "name": "description",
              "type": "string"
            },
            {
              "internalType": "uint256",
              "name": "voteCount",
              "type": "uint256"
            }
          ],
          "internalType": "struct Voting.Proposal[]",
          "name": "",
          "type": "tuple[]"
        }
      ],
      "stateMutability": "view",
      "type": "function",
      "constant": true
    },
    {
      "inputs": [],
      "name": "getWinners",
      "outputs": [
        {
          "components": [
            {
              "internalType": "string",
              "name": "description",
              "type": "string"
            },
            {
              "internalType": "uint256",
              "name": "voteCount",
              "type": "uint256"
            }
          ],
          "internalType": "struct Voting.Proposal[]",
          "name": "",
          "type": "tuple[]"
        }
      ],
      "stateMutability": "view",
      "type": "function",
      "constant": true
    },
    {
      "inputs": [],
      "name": "getWinner",
      "outputs": [
        {
          "components": [
            {
              "internalType": "string",
              "name": "description",
              "type": "string"
            },
            {
              "internalType": "uint256",
              "name": "voteCount",
              "type": "uint256"
            }
          ],
          "internalType": "struct Voting.Proposal",
          "name": "",
          "type": "tuple"
        }
      ],
      "stateMutability": "view",
      "type": "function",
      "constant": true
    },
    {
      "inputs": [],
      "name": "getWorkflowStatus",
      "outputs": [
        {
          "internalType": "enum Voting.WorkflowStatus",
          "name": "",
          "type": "uint8"
        }
      ],
      "stateMutability": "view",
      "type": "function",
      "constant": true
    },
    {
      "inputs": [
        {
          "internalType": "address",
          "name": "_addr",
          "type": "address"
        }
      ],
      "name": "addVoter",
      "outputs": [],
      "stateMutability": "nonpayable",
      "type": "function"
    },
    {
      "inputs": [
        {
          "internalType": "string",
          "name": "_desc",
          "type": "string"
        }
      ],
      "name": "addProposal",
      "outputs": [],
      "stateMutability": "nonpayable",
      "type": "function"
    },
    {
      "inputs": [
        {
          "internalType": "uint256",
          "name": "_id",
          "type": "uint256"
        }
      ],
      "name": "setVote",
      "outputs": [],
      "stateMutability": "nonpayable",
      "type": "function"
    },
    {
      "inputs": [],
      "name": "startProposalsRegistering",
      "outputs": [],
      "stateMutability": "nonpayable",
      "type": "function"
    },
    {
      "inputs": [],
      "name": "endProposalsRegistering",
      "outputs": [],
      "stateMutability": "nonpayable",
      "type": "function"
    },
    {
      "inputs": [],
      "name": "startVotingSession",
      "outputs": [],
      "stateMutability": "nonpayable",
      "type": "function"
    },
    {
      "inputs": [],
      "name": "endVotingSession",
      "outputs": [],
      "stateMutability": "nonpayable",
      "type": "function"
    },
    {
      "inputs": [],
      "name": "tallyVotesDraw",
      "outputs": [],
      "stateMutability": "nonpayable",
      "type": "function"
    },
    {
      "inputs": [],
      "name": "tallyVotes",
      "outputs": [],
      "stateMutability": "nonpayable",
      "type": "function"
    }
  ],
  "bytecode": "0x60806040523480156200001157600080fd5b5062000032620000266200003860201b60201c565b6200004060201b60201c565b62000104565b600033905090565b60008060009054906101000a900473ffffffffffffffffffffffffffffffffffffffff169050816000806101000a81548173ffffffffffffffffffffffffffffffffffffffff021916908373ffffffffffffffffffffffffffffffffffffffff1602179055508173ffffffffffffffffffffffffffffffffffffffff168173ffffffffffffffffffffffffffffffffffffffff167f8be0079c531659141344cd1fd0a4f28419497f9722a3daafe3b4186f6b6457e060405160405180910390a35050565b6130de80620001146000396000f3fe608060405234801561001057600080fd5b506004361061012c5760003560e01c8063c7038a4e116100ad578063ee74c67811610071578063ee74c6781461029b578063f2fde38b146102a5578063f4ab9adf146102c1578063f75d64a6146102dd578063f86c6779146102fb5761012c565b8063c7038a4e1461021b578063c88af42f14610225578063cceb68f51461022f578063d4f50f981461024d578063df15c37e1461027d5761012c565b80638da5cb5b116100f45780638da5cb5b146101875780638e7ea5b2146101a5578063a1edffa2146101c3578063a2788cce146101e1578063a7bfab16146102115761012c565b8063230796ae146101315780632fdae3c51461014d578063378a2178146101695780633beee92e14610173578063715018a61461017d575b600080fd5b61014b600480360381019061014691906120b2565b61032c565b005b61016760048036038101906101629190612225565b610629565b005b61017161086d565b005b61017b610a4e565b005b610185610db2565b005b61018f610e3a565b60405161019c91906122af565b60405180910390f35b6101ad610e63565b6040516101ba919061239e565b60405180910390f35b6101cb610fb0565b6040516101d89190612437565b60405180910390f35b6101fb60048036038101906101f691906120b2565b610fc3565b604051610208919061239e565b60405180910390f35b61021961109b565b005b6102236111f4565b005b61022d61134e565b005b6102376114a8565b6040516102449190612551565b60405180910390f35b6102676004803603810190610262919061259f565b6115a3565b6040516102749190612629565b60405180910390f35b6102856116cb565b6040516102929190612551565b60405180910390f35b6102a361183b565b005b6102bf60048036038101906102ba919061259f565b611995565b005b6102db60048036038101906102d6919061259f565b611a8d565b005b6102e5611d38565b6040516102f29190612437565b60405180910390f35b610315600480360381019061031091906120b2565b611d4f565b60405161032392919061269d565b60405180910390f35b600660003373ffffffffffffffffffffffffffffffffffffffff1673ffffffffffffffffffffffffffffffffffffffff16815260200190815260200160002060000160009054906101000a900460ff166103bb576040517f08c379a00000000000000000000000000000000000000000000000000000000081526004016103b290612719565b60405180910390fd5b600360058111156103cf576103ce6123c0565b5b600460009054906101000a900460ff1660058111156103f1576103f06123c0565b5b14610431576040517f08c379a0000000000000000000000000000000000000000000000000000000008152600401610428906127ab565b60405180910390fd5b60011515600660003373ffffffffffffffffffffffffffffffffffffffff1673ffffffffffffffffffffffffffffffffffffffff16815260200190815260200160002060000160019054906101000a900460ff16151514156104c8576040517f08c379a00000000000000000000000000000000000000000000000000000000081526004016104bf90612817565b60405180910390fd5b600580549050811115610510576040517f08c379a000000000000000000000000000000000000000000000000000000000815260040161050790612883565b60405180910390fd5b80600660003373ffffffffffffffffffffffffffffffffffffffff1673ffffffffffffffffffffffffffffffffffffffff168152602001908152602001600020600101819055506001600660003373ffffffffffffffffffffffffffffffffffffffff1673ffffffffffffffffffffffffffffffffffffffff16815260200190815260200160002060000160016101000a81548160ff021916908315150217905550600581815481106105c6576105c56128a3565b5b906000526020600020906002020160010160008154809291906105e890612901565b91905055507f4d99b957a2bc29a30ebd96a7be8e68fe50a3c701db28a91436490b7d53870ca4338260405161061e92919061294a565b60405180910390a150565b600660003373ffffffffffffffffffffffffffffffffffffffff1673ffffffffffffffffffffffffffffffffffffffff16815260200190815260200160002060000160009054906101000a900460ff166106b8576040517f08c379a00000000000000000000000000000000000000000000000000000000081526004016106af90612719565b60405180910390fd5b600160058111156106cc576106cb6123c0565b5b600460009054906101000a900460ff1660058111156106ee576106ed6123c0565b5b1461072e576040517f08c379a0000000000000000000000000000000000000000000000000000000008152600401610725906129bf565b60405180910390fd5b60405160200161073d90612a05565b60405160208183030381529060405280519060200120816040516020016107649190612a25565b6040516020818303038152906040528051906020012014156107bb576040517f08c379a00000000000000000000000000000000000000000000000000000000081526004016107b290612a93565b60405180910390fd5b6107c3611ed7565b81816000018190525060058190806001815401808255809150506001900390600052602060002090600202016000909190919091506000820151816000019080519060200190610814929190611ef1565b506020820151816001015550507f92e393e9b54e2f801d3ea4beb0c5e71a21cc34a5d34b77d0fb8a3aa1650dc18f60016005805490506108549190612ab3565b6040516108619190612ae7565b60405180910390a15050565b610875611e0b565b73ffffffffffffffffffffffffffffffffffffffff16610893610e3a565b73ffffffffffffffffffffffffffffffffffffffff16146108e9576040517f08c379a00000000000000000000000000000000000000000000000000000000081526004016108e090612b4e565b60405180910390fd5b600460058111156108fd576108fc6123c0565b5b600460009054906101000a900460ff16600581111561091f5761091e6123c0565b5b1461095f576040517f08c379a000000000000000000000000000000000000000000000000000000000815260040161095690612be0565b60405180910390fd5b600080600090505b6005805490508110156109dd5760058281548110610988576109876128a3565b5b906000526020600020906002020160010154600582815481106109ae576109ad6128a3565b5b90600052602060002090600202016001015411156109ca578091505b80806109d590612901565b915050610967565b50806003819055506005600460006101000a81548160ff02191690836005811115610a0b57610a0a6123c0565b5b02179055507f0a97a4ee45751e2abf3e4fc8946939630b11b371ea8ae39ccdc3056e98f5cc3f60046005604051610a43929190612c00565b60405180910390a150565b610a56611e0b565b73ffffffffffffffffffffffffffffffffffffffff16610a74610e3a565b73ffffffffffffffffffffffffffffffffffffffff1614610aca576040517f08c379a0000000000000000000000000000000000000000000000000000000008152600401610ac190612b4e565b60405180910390fd5b60046005811115610ade57610add6123c0565b5b600460009054906101000a900460ff166005811115610b0057610aff6123c0565b5b14610b40576040517f08c379a0000000000000000000000000000000000000000000000000000000008152600401610b3790612be0565b60405180910390fd5b6000610b4a611f77565b600080600090505b600580549050811015610c57576005821015610c44578360058281548110610b7d57610b7c6128a3565b5b9060005260206000209060020201600101541415610bc15780838360058110610ba957610ba86128a3565b5b6020020181815250508180610bbd90612901565b9250505b8360058281548110610bd657610bd56128a3565b5b9060005260206000209060020201600101541115610c4357610bf6611f77565b92508083600060058110610c0d57610c0c6128a3565b5b60200201818152505060058181548110610c2a57610c296128a3565b5b9060005260206000209060020201600101549350600191505b5b8080610c4f90612901565b915050610b52565b5060005b81811015610d46576001838260058110610c7857610c776128a3565b5b6020020151908060018154018082558091505060019003906000526020600020016000909190919091505560026005848360058110610cba57610cb96128a3565b5b602002015181548110610cd057610ccf6128a3565b5b906000526020600020906002020190806001815401808255809150506001900390600052602060002090600202016000909190919091506000820181600001908054610d1b90612c58565b610d26929190611f99565b506001820154816001015550508080610d3e90612901565b915050610c5b565b506005600460006101000a81548160ff02191690836005811115610d6d57610d6c6123c0565b5b02179055507f0a97a4ee45751e2abf3e4fc8946939630b11b371ea8ae39ccdc3056e98f5cc3f60046005604051610da5929190612c00565b60405180910390a1505050565b610dba611e0b565b73ffffffffffffffffffffffffffffffffffffffff16610dd8610e3a565b73ffffffffffffffffffffffffffffffffffffffff1614610e2e576040517f08c379a0000000000000000000000000000000000000000000000000000000008152600401610e2590612b4e565b60405180910390fd5b610e386000611e13565b565b60008060009054906101000a900473ffffffffffffffffffffffffffffffffffffffff16905090565b610e6b611ed7565b600580811115610e7e57610e7d6123c0565b5b600460009054906101000a900460ff166005811115610ea057610e9f6123c0565b5b14610ee0576040517f08c379a0000000000000000000000000000000000000000000000000000000008152600401610ed790612cd6565b60405180910390fd5b600560035481548110610ef657610ef56128a3565b5b9060005260206000209060020201604051806040016040529081600082018054610f1f90612c58565b80601f0160208091040260200160405190810160405280929190818152602001828054610f4b90612c58565b8015610f985780601f10610f6d57610100808354040283529160200191610f98565b820191906000526020600020905b815481529060010190602001808311610f7b57829003601f168201915b50505050508152602001600182015481525050905090565b600460009054906101000a900460ff1681565b610fcb611ed7565b60058281548110610fdf57610fde6128a3565b5b906000526020600020906002020160405180604001604052908160008201805461100890612c58565b80601f016020809104026020016040519081016040528092919081815260200182805461103490612c58565b80156110815780601f1061105657610100808354040283529160200191611081565b820191906000526020600020905b81548152906001019060200180831161106457829003601f168201915b505050505081526020016001820154815250509050919050565b6110a3611e0b565b73ffffffffffffffffffffffffffffffffffffffff166110c1610e3a565b73ffffffffffffffffffffffffffffffffffffffff1614611117576040517f08c379a000000000000000000000000000000000000000000000000000000000815260040161110e90612b4e565b60405180910390fd5b6003600581111561112b5761112a6123c0565b5b600460009054906101000a900460ff16600581111561114d5761114c6123c0565b5b1461118d576040517f08c379a0000000000000000000000000000000000000000000000000000000008152600401611184906127ab565b60405180910390fd5b60048060006101000a81548160ff021916908360058111156111b2576111b16123c0565b5b02179055507f0a97a4ee45751e2abf3e4fc8946939630b11b371ea8ae39ccdc3056e98f5cc3f600360046040516111ea929190612c00565b60405180910390a1565b6111fc611e0b565b73ffffffffffffffffffffffffffffffffffffffff1661121a610e3a565b73ffffffffffffffffffffffffffffffffffffffff1614611270576040517f08c379a000000000000000000000000000000000000000000000000000000000815260040161126790612b4e565b60405180910390fd5b60006005811115611284576112836123c0565b5b600460009054906101000a900460ff1660058111156112a6576112a56123c0565b5b146112e6576040517f08c379a00000000000000000000000000000000000000000000000000000000081526004016112dd90612d68565b60405180910390fd5b6001600460006101000a81548160ff0219169083600581111561130c5761130b6123c0565b5b02179055507f0a97a4ee45751e2abf3e4fc8946939630b11b371ea8ae39ccdc3056e98f5cc3f60006001604051611344929190612c00565b60405180910390a1565b611356611e0b565b73ffffffffffffffffffffffffffffffffffffffff16611374610e3a565b73ffffffffffffffffffffffffffffffffffffffff16146113ca576040517f08c379a00000000000000000000000000000000000000000000000000000000081526004016113c190612b4e565b60405180910390fd5b600160058111156113de576113dd6123c0565b5b600460009054906101000a900460ff166005811115611400576113ff6123c0565b5b14611440576040517f08c379a000000000000000000000000000000000000000000000000000000000815260040161143790612dfa565b60405180910390fd5b6002600460006101000a81548160ff02191690836005811115611466576114656123c0565b5b02179055507f0a97a4ee45751e2abf3e4fc8946939630b11b371ea8ae39ccdc3056e98f5cc3f6001600260405161149e929190612c00565b60405180910390a1565b60606005805480602002602001604051908101604052809291908181526020016000905b8282101561159a57838290600052602060002090600202016040518060400160405290816000820180546114ff90612c58565b80601f016020809104026020016040519081016040528092919081815260200182805461152b90612c58565b80156115785780601f1061154d57610100808354040283529160200191611578565b820191906000526020600020905b81548152906001019060200180831161155b57829003601f168201915b50505050508152602001600182015481525050815260200190600101906114cc565b50505050905090565b6115ab612026565b600660003373ffffffffffffffffffffffffffffffffffffffff1673ffffffffffffffffffffffffffffffffffffffff16815260200190815260200160002060000160009054906101000a900460ff1661163a576040517f08c379a000000000000000000000000000000000000000000000000000000000815260040161163190612719565b60405180910390fd5b600660008373ffffffffffffffffffffffffffffffffffffffff1673ffffffffffffffffffffffffffffffffffffffff1681526020019081526020016000206040518060600160405290816000820160009054906101000a900460ff161515151581526020016000820160019054906101000a900460ff161515151581526020016001820154815250509050919050565b60606005808111156116e0576116df6123c0565b5b600460009054906101000a900460ff166005811115611702576117016123c0565b5b14611742576040517f08c379a000000000000000000000000000000000000000000000000000000000815260040161173990612cd6565b60405180910390fd5b6002805480602002602001604051908101604052809291908181526020016000905b82821015611832578382906000526020600020906002020160405180604001604052908160008201805461179790612c58565b80601f01602080910402602001604051908101604052809291908181526020018280546117c390612c58565b80156118105780601f106117e557610100808354040283529160200191611810565b820191906000526020600020905b8154815290600101906020018083116117f357829003601f168201915b5050505050815260200160018201548152505081526020019060010190611764565b50505050905090565b611843611e0b565b73ffffffffffffffffffffffffffffffffffffffff16611861610e3a565b73ffffffffffffffffffffffffffffffffffffffff16146118b7576040517f08c379a00000000000000000000000000000000000000000000000000000000081526004016118ae90612b4e565b60405180910390fd5b600260058111156118cb576118ca6123c0565b5b600460009054906101000a900460ff1660058111156118ed576118ec6123c0565b5b1461192d576040517f08c379a000000000000000000000000000000000000000000000000000000000815260040161192490612e8c565b60405180910390fd5b6003600460006101000a81548160ff02191690836005811115611953576119526123c0565b5b02179055507f0a97a4ee45751e2abf3e4fc8946939630b11b371ea8ae39ccdc3056e98f5cc3f6002600360405161198b929190612c00565b60405180910390a1565b61199d611e0b565b73ffffffffffffffffffffffffffffffffffffffff166119bb610e3a565b73ffffffffffffffffffffffffffffffffffffffff1614611a11576040517f08c379a0000000000000000000000000000000000000000000000000000000008152600401611a0890612b4e565b60405180910390fd5b600073ffffffffffffffffffffffffffffffffffffffff168173ffffffffffffffffffffffffffffffffffffffff161415611a81576040517f08c379a0000000000000000000000000000000000000000000000000000000008152600401611a7890612f1e565b60405180910390fd5b611a8a81611e13565b50565b611a95611e0b565b73ffffffffffffffffffffffffffffffffffffffff16611ab3610e3a565b73ffffffffffffffffffffffffffffffffffffffff1614611b09576040517f08c379a0000000000000000000000000000000000000000000000000000000008152600401611b0090612b4e565b60405180910390fd5b60006005811115611b1d57611b1c6123c0565b5b600460009054906101000a900460ff166005811115611b3f57611b3e6123c0565b5b14611b7f576040517f08c379a0000000000000000000000000000000000000000000000000000000008152600401611b7690612fb0565b60405180910390fd5b60011515600660008373ffffffffffffffffffffffffffffffffffffffff1673ffffffffffffffffffffffffffffffffffffffff16815260200190815260200160002060000160009054906101000a900460ff1615151415611c16576040517f08c379a0000000000000000000000000000000000000000000000000000000008152600401611c0d9061301c565b60405180910390fd5b604051602001611c2590612a05565b6040516020818303038152906040528051906020012081604051602001611c4c91906122af565b604051602081830303815290604052805190602001201415611ca3576040517f08c379a0000000000000000000000000000000000000000000000000000000008152600401611c9a90613088565b60405180910390fd5b6001600660008373ffffffffffffffffffffffffffffffffffffffff1673ffffffffffffffffffffffffffffffffffffffff16815260200190815260200160002060000160006101000a81548160ff0219169083151502179055507fb6be2187d059cc2a55fe29e0e503b566e1e0f8c8780096e185429350acffd3dd81604051611d2d91906122af565b60405180910390a150565b6000600460009054906101000a900460ff16905090565b60058181548110611d5f57600080fd5b9060005260206000209060020201600091509050806000018054611d8290612c58565b80601f0160208091040260200160405190810160405280929190818152602001828054611dae90612c58565b8015611dfb5780601f10611dd057610100808354040283529160200191611dfb565b820191906000526020600020905b815481529060010190602001808311611dde57829003601f168201915b5050505050908060010154905082565b600033905090565b60008060009054906101000a900473ffffffffffffffffffffffffffffffffffffffff169050816000806101000a81548173ffffffffffffffffffffffffffffffffffffffff021916908373ffffffffffffffffffffffffffffffffffffffff1602179055508173ffffffffffffffffffffffffffffffffffffffff168173ffffffffffffffffffffffffffffffffffffffff167f8be0079c531659141344cd1fd0a4f28419497f9722a3daafe3b4186f6b6457e060405160405180910390a35050565b604051806040016040528060608152602001600081525090565b828054611efd90612c58565b90600052602060002090601f016020900481019282611f1f5760008555611f66565b82601f10611f3857805160ff1916838001178555611f66565b82800160010185558215611f66579182015b82811115611f65578251825591602001919060010190611f4a565b5b509050611f73919061204b565b5090565b6040518060a00160405280600590602082028036833780820191505090505090565b828054611fa590612c58565b90600052602060002090601f016020900481019282611fc75760008555612015565b82601f10611fd85780548555612015565b8280016001018555821561201557600052602060002091601f016020900482015b82811115612014578254825591600101919060010190611ff9565b5b509050612022919061204b565b5090565b6040518060600160405280600015158152602001600015158152602001600081525090565b5b8082111561206457600081600090555060010161204c565b5090565b6000604051905090565b600080fd5b600080fd5b6000819050919050565b61208f8161207c565b811461209a57600080fd5b50565b6000813590506120ac81612086565b92915050565b6000602082840312156120c8576120c7612072565b5b60006120d68482850161209d565b91505092915050565b600080fd5b600080fd5b6000601f19601f8301169050919050565b7f4e487b7100000000000000000000000000000000000000000000000000000000600052604160045260246000fd5b612132826120e9565b810181811067ffffffffffffffff82111715612151576121506120fa565b5b80604052505050565b6000612164612068565b90506121708282612129565b919050565b600067ffffffffffffffff8211156121905761218f6120fa565b5b612199826120e9565b9050602081019050919050565b82818337600083830152505050565b60006121c86121c384612175565b61215a565b9050828152602081018484840111156121e4576121e36120e4565b5b6121ef8482856121a6565b509392505050565b600082601f83011261220c5761220b6120df565b5b813561221c8482602086016121b5565b91505092915050565b60006020828403121561223b5761223a612072565b5b600082013567ffffffffffffffff81111561225957612258612077565b5b612265848285016121f7565b91505092915050565b600073ffffffffffffffffffffffffffffffffffffffff82169050919050565b60006122998261226e565b9050919050565b6122a98161228e565b82525050565b60006020820190506122c460008301846122a0565b92915050565b600081519050919050565b600082825260208201905092915050565b60005b838110156123045780820151818401526020810190506122e9565b83811115612313576000848401525b50505050565b6000612324826122ca565b61232e81856122d5565b935061233e8185602086016122e6565b612347816120e9565b840191505092915050565b61235b8161207c565b82525050565b6000604083016000830151848203600086015261237e8282612319565b91505060208301516123936020860182612352565b508091505092915050565b600060208201905081810360008301526123b88184612361565b905092915050565b7f4e487b7100000000000000000000000000000000000000000000000000000000600052602160045260246000fd5b60068110612400576123ff6123c0565b5b50565b6000819050612411826123ef565b919050565b600061242182612403565b9050919050565b61243181612416565b82525050565b600060208201905061244c6000830184612428565b92915050565b600081519050919050565b600082825260208201905092915050565b6000819050602082019050919050565b6000604083016000830151848203600086015261249b8282612319565b91505060208301516124b06020860182612352565b508091505092915050565b60006124c7838361247e565b905092915050565b6000602082019050919050565b60006124e782612452565b6124f1818561245d565b9350836020820285016125038561246e565b8060005b8581101561253f578484038952815161252085826124bb565b945061252b836124cf565b925060208a01995050600181019050612507565b50829750879550505050505092915050565b6000602082019050818103600083015261256b81846124dc565b905092915050565b61257c8161228e565b811461258757600080fd5b50565b60008135905061259981612573565b92915050565b6000602082840312156125b5576125b4612072565b5b60006125c38482850161258a565b91505092915050565b60008115159050919050565b6125e1816125cc565b82525050565b6060820160008201516125fd60008501826125d8565b50602082015161261060208501826125d8565b5060408201516126236040850182612352565b50505050565b600060608201905061263e60008301846125e7565b92915050565b600082825260208201905092915050565b6000612660826122ca565b61266a8185612644565b935061267a8185602086016122e6565b612683816120e9565b840191505092915050565b6126978161207c565b82525050565b600060408201905081810360008301526126b78185612655565b90506126c6602083018461268e565b9392505050565b7f596f75277265206e6f74206120766f7465720000000000000000000000000000600082015250565b6000612703601283612644565b915061270e826126cd565b602082019050919050565b60006020820190508181036000830152612732816126f6565b9050919050565b7f566f74696e672073657373696f6e20686176656e74207374617274656420796560008201527f7400000000000000000000000000000000000000000000000000000000000000602082015250565b6000612795602183612644565b91506127a082612739565b604082019050919050565b600060208201905081810360008301526127c481612788565b9050919050565b7f596f75206861766520616c726561647920766f74656400000000000000000000600082015250565b6000612801601683612644565b915061280c826127cb565b602082019050919050565b60006020820190508181036000830152612830816127f4565b9050919050565b7f50726f706f73616c206e6f7420666f756e640000000000000000000000000000600082015250565b600061286d601283612644565b915061287882612837565b602082019050919050565b6000602082019050818103600083015261289c81612860565b9050919050565b7f4e487b7100000000000000000000000000000000000000000000000000000000600052603260045260246000fd5b7f4e487b7100000000000000000000000000000000000000000000000000000000600052601160045260246000fd5b600061290c8261207c565b91507fffffffffffffffffffffffffffffffffffffffffffffffffffffffffffffffff82141561293f5761293e6128d2565b5b600182019050919050565b600060408201905061295f60008301856122a0565b61296c602083018461268e565b9392505050565b7f50726f706f73616c7320617265206e6f7420616c6c6f77656420796574000000600082015250565b60006129a9601d83612644565b91506129b482612973565b602082019050919050565b600060208201905081810360008301526129d88161299c565b9050919050565b50565b60006129ef600083612644565b91506129fa826129df565b600082019050919050565b60006020820190508181036000830152612a1e816129e2565b9050919050565b60006020820190508181036000830152612a3f8184612655565b905092915050565b7f5468652070726f706f73616c2063616e6e6f7420626520656d70747900000000600082015250565b6000612a7d601c83612644565b9150612a8882612a47565b602082019050919050565b60006020820190508181036000830152612aac81612a70565b9050919050565b6000612abe8261207c565b9150612ac98361207c565b925082821015612adc57612adb6128d2565b5b828203905092915050565b6000602082019050612afc600083018461268e565b92915050565b7f4f776e61626c653a2063616c6c6572206973206e6f7420746865206f776e6572600082015250565b6000612b38602083612644565b9150612b4382612b02565b602082019050919050565b60006020820190508181036000830152612b6781612b2b565b9050919050565b7f43757272656e7420737461747573206973206e6f7420766f74696e672073657360008201527f73696f6e20656e64656400000000000000000000000000000000000000000000602082015250565b6000612bca602a83612644565b9150612bd582612b6e565b604082019050919050565b60006020820190508181036000830152612bf981612bbd565b9050919050565b6000604082019050612c156000830185612428565b612c226020830184612428565b9392505050565b7f4e487b7100000000000000000000000000000000000000000000000000000000600052602260045260246000fd5b60006002820490506001821680612c7057607f821691505b60208210811415612c8457612c83612c29565b5b50919050565b7f566f74657320617265206e6f742074616c6c6965642079657400000000000000600082015250565b6000612cc0601983612644565b9150612ccb82612c8a565b602082019050919050565b60006020820190508181036000830152612cef81612cb3565b9050919050565b7f5265676973746572696e672070726f706f73616c732063616e7420626520737460008201527f6172746564206e6f770000000000000000000000000000000000000000000000602082015250565b6000612d52602983612644565b9150612d5d82612cf6565b604082019050919050565b60006020820190508181036000830152612d8181612d45565b9050919050565b7f5265676973746572696e672070726f706f73616c7320686176656e742073746160008201527f7274656420796574000000000000000000000000000000000000000000000000602082015250565b6000612de4602883612644565b9150612def82612d88565b604082019050919050565b60006020820190508181036000830152612e1381612dd7565b9050919050565b7f5265676973746572696e672070726f706f73616c73207068617365206973206e60008201527f6f742066696e6973686564000000000000000000000000000000000000000000602082015250565b6000612e76602b83612644565b9150612e8182612e1a565b604082019050919050565b60006020820190508181036000830152612ea581612e69565b9050919050565b7f4f776e61626c653a206e6577206f776e657220697320746865207a65726f206160008201527f6464726573730000000000000000000000000000000000000000000000000000602082015250565b6000612f08602683612644565b9150612f1382612eac565b604082019050919050565b60006020820190508181036000830152612f3781612efb565b9050919050565b7f566f7465727320726567697374726174696f6e206973206e6f74206f70656e2060008201527f7965740000000000000000000000000000000000000000000000000000000000602082015250565b6000612f9a602383612644565b9150612fa582612f3e565b604082019050919050565b60006020820190508181036000830152612fc981612f8d565b9050919050565b7f416c726561647920726567697374657265640000000000000000000000000000600082015250565b6000613006601283612644565b915061301182612fd0565b602082019050919050565b6000602082019050818103600083015261303581612ff9565b9050919050565b7f54686520616464726573732063616e6e6f7420626520656d7074790000000000600082015250565b6000613072601b83612644565b915061307d8261303c565b602082019050919050565b600060208201905081810360008301526130a181613065565b905091905056fea264697066735822122017925ef326689e06e93bd41c7d090319b1772b6205ebf41c26d40546cbf391af64736f6c63430008090033",
  "immutableReferences": {},
  "source": "// SPDX-License-Identifier: MIT\n\npragma solidity ^0.8.7;\n\nimport \"@openzeppelin/contracts/access/Ownable.sol\";\n// import \"./node_modules/@openzeppelin/contracts/access/Ownable.sol\";\n\n/// @title A generic vote application\n/// @author Cyril Castagnet - Sbastien Verdenal\n/// @notice Use this contract for a generic ballot without stakes\n/// @dev Contract under development which can be improved\ncontract Voting is Ownable {\n\n    // arrays for draw, uint for single\n    uint[] winningProposalsID;\n    Proposal[] winningProposals;\n    \n    uint winningProposalID;\n    \n    struct Voter {\n        bool isRegistered;\n        bool hasVoted;\n        uint votedProposalId;\n    }\n\n    struct Proposal {\n        string description;\n        uint voteCount;\n    }\n\n    enum  WorkflowStatus {\n        RegisteringVoters,\n        ProposalsRegistrationStarted,\n        ProposalsRegistrationEnded,\n        VotingSessionStarted,\n        VotingSessionEnded,\n        VotesTallied\n    }\n\n    WorkflowStatus public workflowStatus;\n    Proposal[] public proposalsArray;\n    mapping (address => Voter) private voters;\n\n    event VoterRegistered(address voterAddress); \n    event WorkflowStatusChange(WorkflowStatus previousStatus, WorkflowStatus newStatus);\n    event ProposalRegistered(uint proposalId);\n    event Voted (address voter, uint proposalId);\n\n    modifier onlyVoters() {\n        require(voters[msg.sender].isRegistered, \"You're not a voter\");\n        _;\n    }\n    \n    // on peut faire un modifier pour les tats\n\n    // ::::::::::::: GETTERS ::::::::::::: //\n\n    /// @notice Returns information about the voter if registered\n    /// @dev Returns a struct\n    /// @param _addr The address a potential voter\n    /// @return Returns a voter if voter isRegistered, hasVoted and a votedProposalId\n    function getVoter(address _addr) external onlyVoters view returns (Voter memory) {\n        return voters[_addr];\n    }\n    \n    /// @notice Returns a proposal identified by its id\n    /// @param _id The id of a proposal\n    /// @return Returns a struct\n    function getOneProposal(uint _id) external view returns (Proposal memory) {\n        return proposalsArray[_id];\n    }\n\n    /// @notice Returns the list of proposals\n    /// @return Returns an array of struct\n    function getAllProposals() external view returns (Proposal[] memory) {\n        return proposalsArray;\n    }\n    \n\n\n    // ne pas tester\n    /// @notice Returns the tied winning proposals (description & number of votes)\n    /// @return Returns an array of struct\n    function getWinners() external view returns (Proposal[] memory) {\n        require(workflowStatus == WorkflowStatus.VotesTallied, 'Votes are not tallied yet');\n        return winningProposals; // return proposalsArray[winningProposalID];\n    }\n\n    /// @notice Returns the winning proposal (description & number of votes)\n    /// @return Returns a struct\n    function getWinner() external view returns (Proposal memory) {\n        require(workflowStatus == WorkflowStatus.VotesTallied, 'Votes are not tallied yet');\n        return proposalsArray[winningProposalID];\n    }\n\n    /// @notice Returns the actual workflowStatus \n    /// @return Returns the id of the workflowStatus\n    function getWorkflowStatus() public view returns (WorkflowStatus) {\n        return workflowStatus;\n    }\n \n    // ::::::::::::: REGISTRATION ::::::::::::: // \n\n    /// @notice Adds a vote identified by his address\n    /// @param _addr The address a future voter\n    function addVoter(address _addr) external onlyOwner {\n        require(workflowStatus == WorkflowStatus.RegisteringVoters, 'Voters registration is not open yet');\n        require(voters[_addr].isRegistered != true, 'Already registered');\n        require(keccak256(abi.encode(_addr)) != keccak256(abi.encode(\"\")), 'The address cannot be empty'); // facultatif\n    \n        voters[_addr].isRegistered = true;\n        emit VoterRegistered(_addr);\n    }\n \n    /* facultatif\n     * function deleteVoter(address _addr) external onlyOwner {\n     *   require(workflowStatus == WorkflowStatus.RegisteringVoters, 'Voters registration is not open yet');\n     *   require(voters[_addr].isRegistered == true, 'Not registered.');\n     *   voters[_addr].isRegistered = false;\n     *  emit VoterRegistered(_addr);\n    }*/\n\n    // ::::::::::::: PROPOSAL ::::::::::::: // \n\n    /// @notice Adds a proposal (description)\n    /// @param _desc The description of the proposal\n    function addProposal(string memory _desc) external onlyVoters {\n        require(workflowStatus == WorkflowStatus.ProposalsRegistrationStarted, 'Proposals are not allowed yet');\n        require(keccak256(abi.encode(_desc)) != keccak256(abi.encode(\"\")), 'The proposal cannot be empty'); // facultatif\n        // voir que desc est different des autres\n\n        Proposal memory proposal;\n        proposal.description = _desc;\n        proposalsArray.push(proposal);\n        emit ProposalRegistered(proposalsArray.length-1);\n    }\n\n    // ::::::::::::: VOTE ::::::::::::: //\n\n    /// @notice Votes for a proposal\n    /// @param _id The id of the proposal\n    function setVote(uint _id) external onlyVoters {\n        require(workflowStatus == WorkflowStatus.VotingSessionStarted, 'Voting session havent started yet');\n        require(voters[msg.sender].hasVoted != true, 'You have already voted');\n        require(_id <= proposalsArray.length, 'Proposal not found'); // pas oblig, et pas besoin du >0 car uint\n\n        voters[msg.sender].votedProposalId = _id;\n        voters[msg.sender].hasVoted = true;\n        proposalsArray[_id].voteCount++;\n\n        emit Voted(msg.sender, _id);\n    }\n\n    // ::::::::::::: STATE ::::::::::::: //\n\n    /* on pourrait factoriser tout a: par exemple:\n    *  function setWorkflowStatus(WorkflowStatus _num) public onlyOwner {\n    *    WorkflowStatus pnum = workflowStatus;\n    *    workflowStatus = _num;\n    *    emit WorkflowStatusChange(pnum, workflowStatus);\n        } */ \n\n    /// @notice Starts recording proposals\n    function startProposalsRegistering() external onlyOwner {\n        require(workflowStatus == WorkflowStatus.RegisteringVoters, 'Registering proposals cant be started now');\n        workflowStatus = WorkflowStatus.ProposalsRegistrationStarted;\n        emit WorkflowStatusChange(WorkflowStatus.RegisteringVoters, WorkflowStatus.ProposalsRegistrationStarted);\n    }\n\n    /// @notice Stops recording proposals\n    function endProposalsRegistering() external onlyOwner {\n        require(workflowStatus == WorkflowStatus.ProposalsRegistrationStarted, 'Registering proposals havent started yet');\n        workflowStatus = WorkflowStatus.ProposalsRegistrationEnded;\n        emit WorkflowStatusChange(WorkflowStatus.ProposalsRegistrationStarted, WorkflowStatus.ProposalsRegistrationEnded);\n    }\n\n    /// @notice Starts the voting session\n    function startVotingSession() external onlyOwner {\n        require(workflowStatus == WorkflowStatus.ProposalsRegistrationEnded, 'Registering proposals phase is not finished');\n        workflowStatus = WorkflowStatus.VotingSessionStarted;\n        emit WorkflowStatusChange(WorkflowStatus.ProposalsRegistrationEnded, WorkflowStatus.VotingSessionStarted);\n    }\n\n    /// @notice Stops the voting session\n    function endVotingSession() external onlyOwner {\n        require(workflowStatus == WorkflowStatus.VotingSessionStarted, 'Voting session havent started yet');\n        workflowStatus = WorkflowStatus.VotingSessionEnded;\n        emit WorkflowStatusChange(WorkflowStatus.VotingSessionStarted, WorkflowStatus.VotingSessionEnded);\n    }\n\n    // ne pas tester\n    /// @notice Counts the tied votes\n    function tallyVotesDraw() external onlyOwner {\n       require(workflowStatus == WorkflowStatus.VotingSessionEnded, \"Current status is not voting session ended\");\n        uint highestCount;\n        uint[5] memory winners; // egalite entre 5 proposals max\n        uint nbWinners;\n        for (uint i = 0; i < proposalsArray.length; i++) {\n            if (nbWinners<5){\n                if (proposalsArray[i].voteCount == highestCount) {\n                    winners[nbWinners]=i;\n                    nbWinners++;\n                }\n                if (proposalsArray[i].voteCount > highestCount) {\n                    delete winners;\n                    winners[0]= i;\n                    highestCount = proposalsArray[i].voteCount;\n                    nbWinners=1;\n                }\n            }\n        }\n        for(uint j=0;j<nbWinners;j++){\n            winningProposalsID.push(winners[j]);\n            winningProposals.push(proposalsArray[winners[j]]);\n        }\n        workflowStatus = WorkflowStatus.VotesTallied;\n        emit WorkflowStatusChange(WorkflowStatus.VotingSessionEnded, WorkflowStatus.VotesTallied);\n    }\n\n    /// @notice Counts the votes\n    function tallyVotes() external onlyOwner {\n        require(workflowStatus == WorkflowStatus.VotingSessionEnded, \"Current status is not voting session ended\");\n        uint _winningProposalId;\n        for (uint256 p = 0; p < proposalsArray.length; p++) {\n            if (proposalsArray[p].voteCount > proposalsArray[_winningProposalId].voteCount) {\n                _winningProposalId = p;\n            }\n        }\n        winningProposalID = _winningProposalId;\n        workflowStatus = WorkflowStatus.VotesTallied;\n        emit WorkflowStatusChange(WorkflowStatus.VotingSessionEnded, WorkflowStatus.VotesTallied);\n    }\n}",
  "sourcePath": "D:\\DOCUMENTS\\ALYRA\\LIVRABLES\\06_voting_react_trufflebox\\contracts\\Voting.sol",
  "compiler": {
    "name": "solc",
    "version": "0.8.9+commit.e5eed63a.Emscripten.clang"
  },
  "schemaVersion": "3.4.3",
  "updatedAt": "2021-11-30T15:03:38.879Z",
  "networkType": "ethereum",
  "devdoc": {
    "author": "Cyril Castagnet - Sbastien Verdenal",
    "details": "Contract under development which can be improved",
    "kind": "dev",
    "methods": {
      "addProposal(string)": {
        "params": {
          "_desc": "The description of the proposal"
        }
      },
      "addVoter(address)": {
        "params": {
          "_addr": "The address a future voter"
        }
      },
      "getAllProposals()": {
        "returns": {
          "_0": "Returns an array of struct"
        }
      },
      "getOneProposal(uint256)": {
        "params": {
          "_id": "The id of a proposal"
        },
        "returns": {
          "_0": "Returns a struct"
        }
      },
      "getVoter(address)": {
        "details": "Returns a struct",
        "params": {
          "_addr": "The address a potential voter"
        },
        "returns": {
          "_0": "Returns a voter if voter isRegistered, hasVoted and a votedProposalId"
        }
      },
      "getWinner()": {
        "returns": {
          "_0": "Returns a struct"
        }
      },
      "getWinners()": {
        "returns": {
          "_0": "Returns an array of struct"
        }
      },
      "getWorkflowStatus()": {
        "returns": {
          "_0": "Returns the id of the workflowStatus"
        }
      },
      "owner()": {
        "details": "Returns the address of the current owner."
      },
      "renounceOwnership()": {
        "details": "Leaves the contract without owner. It will not be possible to call `onlyOwner` functions anymore. Can only be called by the current owner. NOTE: Renouncing ownership will leave the contract without an owner, thereby removing any functionality that is only available to the owner."
      },
      "setVote(uint256)": {
        "params": {
          "_id": "The id of the proposal"
        }
      },
      "transferOwnership(address)": {
        "details": "Transfers ownership of the contract to a new account (`newOwner`). Can only be called by the current owner."
      }
    },
    "title": "A generic vote application",
    "version": 1
  },
  "userdoc": {
    "kind": "user",
    "methods": {
      "addProposal(string)": {
        "notice": "Adds a proposal (description)"
      },
      "addVoter(address)": {
        "notice": "Adds a vote identified by his address"
      },
      "endProposalsRegistering()": {
        "notice": "Stops recording proposals"
      },
      "endVotingSession()": {
        "notice": "Stops the voting session"
      },
      "getAllProposals()": {
        "notice": "Returns the list of proposals"
      },
      "getOneProposal(uint256)": {
        "notice": "Returns a proposal identified by its id"
      },
      "getVoter(address)": {
        "notice": "Returns information about the voter if registered"
      },
      "getWinner()": {
        "notice": "Returns the winning proposal (description & number of votes)"
      },
      "getWinners()": {
        "notice": "Returns the tied winning proposals (description & number of votes)"
      },
      "getWorkflowStatus()": {
        "notice": "Returns the actual workflowStatus "
      },
      "setVote(uint256)": {
        "notice": "Votes for a proposal"
      },
      "startProposalsRegistering()": {
        "notice": "Starts recording proposals"
      },
      "startVotingSession()": {
        "notice": "Starts the voting session"
      },
      "tallyVotes()": {
        "notice": "Counts the votes"
      },
      "tallyVotesDraw()": {
        "notice": "Counts the tied votes"
      }
    },
    "notice": "Use this contract for a generic ballot without stakes",
    "version": 1
  }
}